{"abi":[{"type":"constructor","inputs":[{"name":"tokenAddresses","type":"address[]","internalType":"address[]"},{"name":"priceFeedAddresses","type":"address[]","internalType":"address[]"},{"name":"stbAddress","type":"address","internalType":"address"}],"stateMutability":"nonpayable"},{"type":"function","name":"burnStb","inputs":[{"name":"amount","type":"uint256","internalType":"uint256"}],"outputs":[],"stateMutability":"nonpayable"},{"type":"function","name":"calculateHealthFactor","inputs":[{"name":"totalStbMinted","type":"uint256","internalType":"uint256"},{"name":"collateralValueInUsd","type":"uint256","internalType":"uint256"}],"outputs":[{"name":"","type":"uint256","internalType":"uint256"}],"stateMutability":"pure"},{"type":"function","name":"depositCollateral","inputs":[{"name":"tokenCollateralAddress","type":"address","internalType":"address"},{"name":"amountCollateral","type":"uint256","internalType":"uint256"}],"outputs":[],"stateMutability":"nonpayable"},{"type":"function","name":"depositCollateralAndMintStb","inputs":[{"name":"tokenCollateralAddress","type":"address","internalType":"address"},{"name":"amountCollateral","type":"uint256","internalType":"uint256"},{"name":"amountStbToMint","type":"uint256","internalType":"uint256"}],"outputs":[],"stateMutability":"nonpayable"},{"type":"function","name":"getAccountCollateralValue","inputs":[{"name":"user","type":"address","internalType":"address"}],"outputs":[{"name":"totalCollateralValueInUse","type":"uint256","internalType":"uint256"}],"stateMutability":"view"},{"type":"function","name":"getAccountInformation","inputs":[{"name":"user","type":"address","internalType":"address"}],"outputs":[{"name":"totalStbMinted","type":"uint256","internalType":"uint256"},{"name":"collateralValueInUsd","type":"uint256","internalType":"uint256"}],"stateMutability":"view"},{"type":"function","name":"getAdditionalFeedPrecision","inputs":[],"outputs":[{"name":"","type":"uint256","internalType":"uint256"}],"stateMutability":"pure"},{"type":"function","name":"getCollateralBalanceOfUser","inputs":[{"name":"user","type":"address","internalType":"address"},{"name":"token","type":"address","internalType":"address"}],"outputs":[{"name":"","type":"uint256","internalType":"uint256"}],"stateMutability":"view"},{"type":"function","name":"getCollateralTokenPriceFeed","inputs":[{"name":"token","type":"address","internalType":"address"}],"outputs":[{"name":"","type":"address","internalType":"address"}],"stateMutability":"view"},{"type":"function","name":"getCollateralTokens","inputs":[],"outputs":[{"name":"","type":"address[]","internalType":"address[]"}],"stateMutability":"view"},{"type":"function","name":"getHealthFactor","inputs":[],"outputs":[],"stateMutability":"view"},{"type":"function","name":"getHealthFactor","inputs":[{"name":"user","type":"address","internalType":"address"}],"outputs":[{"name":"","type":"uint256","internalType":"uint256"}],"stateMutability":"view"},{"type":"function","name":"getLiquidationBonus","inputs":[],"outputs":[{"name":"","type":"uint256","internalType":"uint256"}],"stateMutability":"pure"},{"type":"function","name":"getLiquidationPrecision","inputs":[],"outputs":[{"name":"","type":"uint256","internalType":"uint256"}],"stateMutability":"pure"},{"type":"function","name":"getLiquidationThreshold","inputs":[],"outputs":[{"name":"","type":"uint256","internalType":"uint256"}],"stateMutability":"pure"},{"type":"function","name":"getMinHealthFactor","inputs":[],"outputs":[{"name":"","type":"uint256","internalType":"uint256"}],"stateMutability":"pure"},{"type":"function","name":"getPrecision","inputs":[],"outputs":[{"name":"","type":"uint256","internalType":"uint256"}],"stateMutability":"pure"},{"type":"function","name":"getStb","inputs":[],"outputs":[{"name":"","type":"address","internalType":"address"}],"stateMutability":"view"},{"type":"function","name":"getTokenAmountFromUsd","inputs":[{"name":"token","type":"address","internalType":"address"},{"name":"usdAmountInWei","type":"uint256","internalType":"uint256"}],"outputs":[{"name":"","type":"uint256","internalType":"uint256"}],"stateMutability":"view"},{"type":"function","name":"getUsdValue","inputs":[{"name":"token","type":"address","internalType":"address"},{"name":"amount","type":"uint256","internalType":"uint256"}],"outputs":[{"name":"","type":"uint256","internalType":"uint256"}],"stateMutability":"view"},{"type":"function","name":"liquidate","inputs":[{"name":"collateral","type":"address","internalType":"address"},{"name":"user","type":"address","internalType":"address"},{"name":"debtToCover","type":"uint256","internalType":"uint256"}],"outputs":[],"stateMutability":"nonpayable"},{"type":"function","name":"mintStb","inputs":[{"name":"amountStbToMint","type":"uint256","internalType":"uint256"}],"outputs":[],"stateMutability":"nonpayable"},{"type":"function","name":"redeemCollateral","inputs":[{"name":"tokenCollateralAddress","type":"address","internalType":"address"},{"name":"amountCollateral","type":"uint256","internalType":"uint256"}],"outputs":[],"stateMutability":"nonpayable"},{"type":"function","name":"redeemCollateralForStb","inputs":[{"name":"tokenCollateralAddress","type":"address","internalType":"address"},{"name":"amountCollateral","type":"uint256","internalType":"uint256"},{"name":"amountStbToBurn","type":"uint256","internalType":"uint256"}],"outputs":[],"stateMutability":"nonpayable"},{"type":"event","name":"CollateralDeposited","inputs":[{"name":"user","type":"address","indexed":true,"internalType":"address"},{"name":"token","type":"address","indexed":true,"internalType":"address"},{"name":"amount","type":"uint256","indexed":false,"internalType":"uint256"}],"anonymous":false},{"type":"event","name":"CollateralRedeemed","inputs":[{"name":"redeemedFrom","type":"address","indexed":true,"internalType":"address"},{"name":"redeemedTo","type":"address","indexed":true,"internalType":"address"},{"name":"token","type":"address","indexed":true,"internalType":"address"},{"name":"amount","type":"uint256","indexed":false,"internalType":"uint256"}],"anonymous":false},{"type":"event","name":"DebugAmount","inputs":[{"name":"amount","type":"uint256","indexed":false,"internalType":"uint256"}],"anonymous":false},{"type":"error","name":"STBEngine__BreaksHealthFactor","inputs":[{"name":"userHealthFactor","type":"uint256","internalType":"uint256"}]},{"type":"error","name":"STBEngine__HealthFactorNotImproved","inputs":[]},{"type":"error","name":"STBEngine__HealthFactorOk","inputs":[]},{"type":"error","name":"STBEngine__MintFailed","inputs":[]},{"type":"error","name":"STBEngine__NeedsMoreThanZero","inputs":[]},{"type":"error","name":"STBEngine__NotAllowedToken","inputs":[]},{"type":"error","name":"STBEngine__NotAllowedZeroAddress","inputs":[]},{"type":"error","name":"STBEngine__TokenAddressesAndPriceFeedAddressedMustBeSameLength","inputs":[]},{"type":"error","name":"STBEngine__TransferFailed","inputs":[]}],"bytecode":{"object":"0x60a060405234801562000010575f80fd5b5060405162002547380380620025478339818101604052810190620000369190620003e9565b60015f81905550815183511462000079576040517fac69305300000000000000000000000000000000000000000000000000000000815260040160405180910390fd5b5f5b8351811015620001cd578281815181106200009b576200009a62000480565b5b602002602001015160015f868481518110620000bc57620000bb62000480565b5b602002602001015173ffffffffffffffffffffffffffffffffffffffff1673ffffffffffffffffffffffffffffffffffffffff1681526020019081526020015f205f6101000a81548173ffffffffffffffffffffffffffffffffffffffff021916908373ffffffffffffffffffffffffffffffffffffffff160217905550600484828151811062000152576200015162000480565b5b6020026020010151908060018154018082558091505060019003905f5260205f20015f9091909190916101000a81548173ffffffffffffffffffffffffffffffffffffffff021916908373ffffffffffffffffffffffffffffffffffffffff1602179055508080620001c490620004e3565b9150506200007b565b508073ffffffffffffffffffffffffffffffffffffffff1660808173ffffffffffffffffffffffffffffffffffffffff16815250505050506200052f565b5f604051905090565b5f80fd5b5f80fd5b5f80fd5b5f601f19601f8301169050919050565b7f4e487b71000000000000000000000000000000000000000000000000000000005f52604160045260245ffd5b620002688262000220565b810181811067ffffffffffffffff821117156200028a576200028962000230565b5b80604052505050565b5f6200029e6200020b565b9050620002ac82826200025d565b919050565b5f67ffffffffffffffff821115620002ce57620002cd62000230565b5b602082029050602081019050919050565b5f80fd5b5f73ffffffffffffffffffffffffffffffffffffffff82169050919050565b5f6200030e82620002e3565b9050919050565b620003208162000302565b81146200032b575f80fd5b50565b5f815190506200033e8162000315565b92915050565b5f6200035a6200035484620002b1565b62000293565b9050808382526020820190506020840283018581111562000380576200037f620002df565b5b835b81811015620003ad57806200039888826200032e565b84526020840193505060208101905062000382565b5050509392505050565b5f82601f830112620003ce57620003cd6200021c565b5b8151620003e084826020860162000344565b91505092915050565b5f805f6060848603121562000403576200040262000214565b5b5f84015167ffffffffffffffff81111562000423576200042262000218565b5b6200043186828701620003b7565b935050602084015167ffffffffffffffff81111562000455576200045462000218565b5b6200046386828701620003b7565b925050604062000476868287016200032e565b9150509250925092565b7f4e487b71000000000000000000000000000000000000000000000000000000005f52603260045260245ffd5b7f4e487b71000000000000000000000000000000000000000000000000000000005f52601160045260245ffd5b5f819050919050565b5f620004ef82620004da565b91507fffffffffffffffffffffffffffffffffffffffffffffffffffffffffffffffff8203620005245762000523620004ad565b5b600182019050919050565b608051611fea6200055d5f395f81816108e50152818161109a01528181611384015261145a0152611fea5ff3fe608060405234801561000f575f80fd5b5060043610610156575f3560e01c80638c1ae6c8116100c1578063a776567e1161007a578063a776567e146103b3578063afea2e48146103cf578063b58eb63f146103ff578063c10cf6751461041d578063c660d11214610439578063fe6bcd7c1461046957610156565b80638c1ae6c8146103175780638f63d667146103355780639670c0bc146103535780639acd81b314610371578063a5d5db0c1461038d578063a5f352b7146103a957610156565b80634448cf81116101135780634448cf811461023e5780634ae9b8bc1461025c57806359aa9e721461027a5780636c8102c0146102985780637be564fc146102b65780637d1a4450146102e757610156565b806301f728841461015a5780631004e3a51461018a5780631c08adda146101a657806326c01303146101d65780632b59cc10146101f257806331e92b831461020e575b5f80fd5b610174600480360381019061016f9190611812565b610499565b604051610181919061185f565b60405180910390f35b6101a4600480360381019061019f9190611878565b6104ac565b005b6101c060048036038101906101bb91906118fd565b610535565b6040516101cd9190611937565b60405180910390f35b6101f060048036038101906101eb9190611950565b61059a565b005b61020c600480360381019061020791906119a0565b610710565b005b610228600480360381019061022391906119f0565b610728565b604051610235919061185f565b60405180910390f35b6102466108e2565b6040516102539190611937565b60405180910390f35b610264610909565b604051610271919061185f565b60405180910390f35b610282610911565b60405161028f919061185f565b60405180910390f35b6102a0610919565b6040516102ad919061185f565b60405180910390f35b6102d060048036038101906102cb91906118fd565b610921565b6040516102de929190611a2e565b60405180910390f35b61030160048036038101906102fc91906118fd565b610935565b60405161030e919061185f565b60405180910390f35b61031f610a35565b60405161032c919061185f565b60405180910390f35b61033d610a44565b60405161034a919061185f565b60405180910390f35b61035b610a50565b604051610368919061185f565b60405180910390f35b61038b60048036038101906103869190611a55565b610a5f565b005b6103a760048036038101906103a29190611a55565b610afa565b005b6103b1610dee565b005b6103cd60048036038101906103c891906119a0565b610df0565b005b6103e960048036038101906103e49190611a55565b610e08565b6040516103f6919061185f565b60405180910390f35b610407610f37565b6040516104149190611b4a565b60405180910390f35b61043760048036038101906104329190611878565b610fc2565b005b610453600480360381019061044e9190611a55565b611179565b604051610460919061185f565b60405180910390f35b610483600480360381019061047e91906118fd565b6112a8565b604051610490919061185f565b60405180910390f35b5f6104a483836112b9565b905092915050565b805f81036104e6576040517f330dd31500000000000000000000000000000000000000000000000000000000815260040160405180910390fd5b7f34a86b71c14b4ee66bd282352dcd8ec0401426a2d61d77d4c9a8014e73f7968781604051610515919061185f565b60405180910390a161052882333361132e565b610531336114e4565b5050565b5f60015f8373ffffffffffffffffffffffffffffffffffffffff1673ffffffffffffffffffffffffffffffffffffffff1681526020019081526020015f205f9054906101000a900473ffffffffffffffffffffffffffffffffffffffff169050919050565b805f81036105d4576040517f330dd31500000000000000000000000000000000000000000000000000000000815260040160405180910390fd5b7f34a86b71c14b4ee66bd282352dcd8ec0401426a2d61d77d4c9a8014e73f7968781604051610603919061185f565b60405180910390a1610613611541565b5f61061d8461158e565b9050670de0b6b3a76400008110610660576040517f661badb700000000000000000000000000000000000000000000000000000000815260040160405180910390fd5b5f61066b8685610e08565b90505f6064600a8361067d9190611b97565b6106879190611c05565b90505f81836106969190611c35565b90506106a487338a846115b1565b6106af86883361132e565b5f6106b98861158e565b90508481116106f4576040517f36ff8d8000000000000000000000000000000000000000000000000000000000815260040160405180910390fd5b6106fd336114e4565b505050505061070a611780565b50505050565b61071a8383610afa565b61072381610fc2565b505050565b5f8073ffffffffffffffffffffffffffffffffffffffff168373ffffffffffffffffffffffffffffffffffffffff160361078e576040517fd2ed9c8200000000000000000000000000000000000000000000000000000000815260040160405180910390fd5b5f805b600480549050811015610828578373ffffffffffffffffffffffffffffffffffffffff16600482815481106107c9576107c8611c68565b5b905f5260205f20015f9054906101000a900473ffffffffffffffffffffffffffffffffffffffff1673ffffffffffffffffffffffffffffffffffffffff16036108155760019150610828565b808061082090611c95565b915050610791565b5080610860576040517fb9f859db00000000000000000000000000000000000000000000000000000000815260040160405180910390fd5b60025f8573ffffffffffffffffffffffffffffffffffffffff1673ffffffffffffffffffffffffffffffffffffffff1681526020019081526020015f205f8473ffffffffffffffffffffffffffffffffffffffff1673ffffffffffffffffffffffffffffffffffffffff1681526020019081526020015f205491505092915050565b5f7f0000000000000000000000000000000000000000000000000000000000000000905090565b5f6032905090565b5f600a905090565b5f6064905090565b5f8061092c83611789565b91509150915091565b5f805f90505b600480549050811015610a2f575f6004828154811061095d5761095c611c68565b5b905f5260205f20015f9054906101000a900473ffffffffffffffffffffffffffffffffffffffff1690505f60025f8673ffffffffffffffffffffffffffffffffffffffff1673ffffffffffffffffffffffffffffffffffffffff1681526020019081526020015f205f8373ffffffffffffffffffffffffffffffffffffffff1673ffffffffffffffffffffffffffffffffffffffff1681526020019081526020015f20549050610a0d8282611179565b84610a189190611c35565b935050508080610a2790611c95565b91505061093b565b50919050565b5f670de0b6b3a7640000905090565b5f6402540be400905090565b5f670de0b6b3a7640000905090565b805f8103610a99576040517f330dd31500000000000000000000000000000000000000000000000000000000815260040160405180910390fd5b7f34a86b71c14b4ee66bd282352dcd8ec0401426a2d61d77d4c9a8014e73f7968781604051610ac8919061185f565b60405180910390a1610ad8611541565b610ae4333385856115b1565b610aed336114e4565b610af5611780565b505050565b805f8103610b34576040517f330dd31500000000000000000000000000000000000000000000000000000000815260040160405180910390fd5b7f34a86b71c14b4ee66bd282352dcd8ec0401426a2d61d77d4c9a8014e73f7968781604051610b63919061185f565b60405180910390a1825f73ffffffffffffffffffffffffffffffffffffffff1660015f8373ffffffffffffffffffffffffffffffffffffffff1673ffffffffffffffffffffffffffffffffffffffff1681526020019081526020015f205f9054906101000a900473ffffffffffffffffffffffffffffffffffffffff1673ffffffffffffffffffffffffffffffffffffffff1603610c2d576040517fb9f859db00000000000000000000000000000000000000000000000000000000815260040160405180910390fd5b610c35611541565b8260025f3373ffffffffffffffffffffffffffffffffffffffff1673ffffffffffffffffffffffffffffffffffffffff1681526020019081526020015f205f8673ffffffffffffffffffffffffffffffffffffffff1673ffffffffffffffffffffffffffffffffffffffff1681526020019081526020015f205f828254610cbc9190611c35565b925050819055508373ffffffffffffffffffffffffffffffffffffffff163373ffffffffffffffffffffffffffffffffffffffff167ff1c0dd7e9b98bbff859029005ef89b127af049cd18df1a8d79f0b7e019911e5685604051610d20919061185f565b60405180910390a35f8473ffffffffffffffffffffffffffffffffffffffff166323b872dd3330876040518463ffffffff1660e01b8152600401610d6693929190611cdc565b6020604051808303815f875af1158015610d82573d5f803e3d5ffd5b505050506040513d601f19601f82011682018060405250810190610da69190611d46565b905080610ddf576040517f32b001d100000000000000000000000000000000000000000000000000000000815260040160405180910390fd5b50610de8611780565b50505050565b565b610df9816104ac565b610e038383610a5f565b505050565b5f8060015f8573ffffffffffffffffffffffffffffffffffffffff1673ffffffffffffffffffffffffffffffffffffffff1681526020019081526020015f205f9054906101000a900473ffffffffffffffffffffffffffffffffffffffff1690505f8173ffffffffffffffffffffffffffffffffffffffff1673__$1f06ac8d622ce42796cee98ba1044ce165$__632ba1c96a90916040518263ffffffff1660e01b8152600401610eb99190611dcc565b60a060405180830381865af4158015610ed4573d5f803e3d5ffd5b505050506040513d601f19601f82011682018060405250810190610ef89190611e6b565b5050509150506402540be40081610f0f9190611b97565b670de0b6b3a764000085610f239190611b97565b610f2d9190611c05565b9250505092915050565b60606004805480602002602001604051908101604052809291908181526020018280548015610fb857602002820191905f5260205f20905b815f9054906101000a900473ffffffffffffffffffffffffffffffffffffffff1673ffffffffffffffffffffffffffffffffffffffff1681526020019060010190808311610f6f575b5050505050905090565b805f8103610ffc576040517f330dd31500000000000000000000000000000000000000000000000000000000815260040160405180910390fd5b7f34a86b71c14b4ee66bd282352dcd8ec0401426a2d61d77d4c9a8014e73f796878160405161102b919061185f565b60405180910390a161103b611541565b8160035f3373ffffffffffffffffffffffffffffffffffffffff1673ffffffffffffffffffffffffffffffffffffffff1681526020019081526020015f205f8282546110879190611c35565b92505081905550611097336114e4565b5f7f000000000000000000000000000000000000000000000000000000000000000073ffffffffffffffffffffffffffffffffffffffff166340c10f1933856040518363ffffffff1660e01b81526004016110f3929190611ee2565b6020604051808303815f875af115801561110f573d5f803e3d5ffd5b505050506040513d601f19601f820116820180604052508101906111339190611d46565b90508061116c576040517f4879fb3600000000000000000000000000000000000000000000000000000000815260040160405180910390fd5b50611175611780565b5050565b5f8060015f8573ffffffffffffffffffffffffffffffffffffffff1673ffffffffffffffffffffffffffffffffffffffff1681526020019081526020015f205f9054906101000a900473ffffffffffffffffffffffffffffffffffffffff1690505f8173ffffffffffffffffffffffffffffffffffffffff1673__$1f06ac8d622ce42796cee98ba1044ce165$__632ba1c96a90916040518263ffffffff1660e01b815260040161122a9190611dcc565b60a060405180830381865af4158015611245573d5f803e3d5ffd5b505050506040513d601f19601f820116820180604052508101906112699190611e6b565b505050915050670de0b6b3a7640000846402540be4008361128a9190611b97565b6112949190611b97565b61129e9190611c05565b9250505092915050565b5f6112b28261158e565b9050919050565b5f8083036112e9577fffffffffffffffffffffffffffffffffffffffffffffffffffffffffffffffff9050611328565b5f60646032846112f99190611b97565b6113039190611c05565b905083670de0b6b3a76400008261131a9190611b97565b6113249190611c05565b9150505b92915050565b8260035f8473ffffffffffffffffffffffffffffffffffffffff1673ffffffffffffffffffffffffffffffffffffffff1681526020019081526020015f205f82825461137a9190611f09565b925050819055505f7f000000000000000000000000000000000000000000000000000000000000000073ffffffffffffffffffffffffffffffffffffffff166323b872dd8330876040518463ffffffff1660e01b81526004016113df93929190611cdc565b6020604051808303815f875af11580156113fb573d5f803e3d5ffd5b505050506040513d601f19601f8201168201806040525081019061141f9190611d46565b905080611458576040517f32b001d100000000000000000000000000000000000000000000000000000000815260040160405180910390fd5b7f000000000000000000000000000000000000000000000000000000000000000073ffffffffffffffffffffffffffffffffffffffff166342966c68856040518263ffffffff1660e01b81526004016114b1919061185f565b5f604051808303815f87803b1580156114c8575f80fd5b505af11580156114da573d5f803e3d5ffd5b5050505050505050565b5f6114ee8261158e565b9050670de0b6b3a764000081101561153d57806040517f7e61e386000000000000000000000000000000000000000000000000000000008152600401611534919061185f565b60405180910390fd5b5050565b60025f5403611585576040517f08c379a000000000000000000000000000000000000000000000000000000000815260040161157c90611f96565b60405180910390fd5b60025f81905550565b5f805f61159a84611789565b915091506115a882826112b9565b92505050919050565b8060025f8673ffffffffffffffffffffffffffffffffffffffff1673ffffffffffffffffffffffffffffffffffffffff1681526020019081526020015f205f8473ffffffffffffffffffffffffffffffffffffffff1673ffffffffffffffffffffffffffffffffffffffff1681526020019081526020015f205f8282546116389190611f09565b925050819055508173ffffffffffffffffffffffffffffffffffffffff168373ffffffffffffffffffffffffffffffffffffffff168573ffffffffffffffffffffffffffffffffffffffff167fb292db12b8dfa23b760ee5e3bd1d3be184cd8f0eeeacd27ce120d4de4e4721f6846040516116b3919061185f565b60405180910390a45f8273ffffffffffffffffffffffffffffffffffffffff1663a9059cbb85846040518363ffffffff1660e01b81526004016116f7929190611ee2565b6020604051808303815f875af1158015611713573d5f803e3d5ffd5b505050506040513d601f19601f820116820180604052508101906117379190611d46565b905080611770576040517f32b001d100000000000000000000000000000000000000000000000000000000815260040160405180910390fd5b611779336114e4565b5050505050565b60015f81905550565b5f8060035f8473ffffffffffffffffffffffffffffffffffffffff1673ffffffffffffffffffffffffffffffffffffffff1681526020019081526020015f205491506117d483610935565b9050915091565b5f80fd5b5f819050919050565b6117f1816117df565b81146117fb575f80fd5b50565b5f8135905061180c816117e8565b92915050565b5f8060408385031215611828576118276117db565b5b5f611835858286016117fe565b9250506020611846858286016117fe565b9150509250929050565b611859816117df565b82525050565b5f6020820190506118725f830184611850565b92915050565b5f6020828403121561188d5761188c6117db565b5b5f61189a848285016117fe565b91505092915050565b5f73ffffffffffffffffffffffffffffffffffffffff82169050919050565b5f6118cc826118a3565b9050919050565b6118dc816118c2565b81146118e6575f80fd5b50565b5f813590506118f7816118d3565b92915050565b5f60208284031215611912576119116117db565b5b5f61191f848285016118e9565b91505092915050565b611931816118c2565b82525050565b5f60208201905061194a5f830184611928565b92915050565b5f805f60608486031215611967576119666117db565b5b5f611974868287016118e9565b9350506020611985868287016118e9565b9250506040611996868287016117fe565b9150509250925092565b5f805f606084860312156119b7576119b66117db565b5b5f6119c4868287016118e9565b93505060206119d5868287016117fe565b92505060406119e6868287016117fe565b9150509250925092565b5f8060408385031215611a0657611a056117db565b5b5f611a13858286016118e9565b9250506020611a24858286016118e9565b9150509250929050565b5f604082019050611a415f830185611850565b611a4e6020830184611850565b9392505050565b5f8060408385031215611a6b57611a6a6117db565b5b5f611a78858286016118e9565b9250506020611a89858286016117fe565b9150509250929050565b5f81519050919050565b5f82825260208201905092915050565b5f819050602082019050919050565b611ac5816118c2565b82525050565b5f611ad68383611abc565b60208301905092915050565b5f602082019050919050565b5f611af882611a93565b611b028185611a9d565b9350611b0d83611aad565b805f5b83811015611b3d578151611b248882611acb565b9750611b2f83611ae2565b925050600181019050611b10565b5085935050505092915050565b5f6020820190508181035f830152611b628184611aee565b905092915050565b7f4e487b71000000000000000000000000000000000000000000000000000000005f52601160045260245ffd5b5f611ba1826117df565b9150611bac836117df565b9250828202611bba816117df565b91508282048414831517611bd157611bd0611b6a565b5b5092915050565b7f4e487b71000000000000000000000000000000000000000000000000000000005f52601260045260245ffd5b5f611c0f826117df565b9150611c1a836117df565b925082611c2a57611c29611bd8565b5b828204905092915050565b5f611c3f826117df565b9150611c4a836117df565b9250828201905080821115611c6257611c61611b6a565b5b92915050565b7f4e487b71000000000000000000000000000000000000000000000000000000005f52603260045260245ffd5b5f611c9f826117df565b91507fffffffffffffffffffffffffffffffffffffffffffffffffffffffffffffffff8203611cd157611cd0611b6a565b5b600182019050919050565b5f606082019050611cef5f830186611928565b611cfc6020830185611928565b611d096040830184611850565b949350505050565b5f8115159050919050565b611d2581611d11565b8114611d2f575f80fd5b50565b5f81519050611d4081611d1c565b92915050565b5f60208284031215611d5b57611d5a6117db565b5b5f611d6884828501611d32565b91505092915050565b5f819050919050565b5f611d94611d8f611d8a846118a3565b611d71565b6118a3565b9050919050565b5f611da582611d7a565b9050919050565b5f611db682611d9b565b9050919050565b611dc681611dac565b82525050565b5f602082019050611ddf5f830184611dbd565b92915050565b5f69ffffffffffffffffffff82169050919050565b611e0381611de5565b8114611e0d575f80fd5b50565b5f81519050611e1e81611dfa565b92915050565b5f819050919050565b611e3681611e24565b8114611e40575f80fd5b50565b5f81519050611e5181611e2d565b92915050565b5f81519050611e65816117e8565b92915050565b5f805f805f60a08688031215611e8457611e836117db565b5b5f611e9188828901611e10565b9550506020611ea288828901611e43565b9450506040611eb388828901611e57565b9350506060611ec488828901611e57565b9250506080611ed588828901611e10565b9150509295509295909350565b5f604082019050611ef55f830185611928565b611f026020830184611850565b9392505050565b5f611f13826117df565b9150611f1e836117df565b9250828203905081811115611f3657611f35611b6a565b5b92915050565b5f82825260208201905092915050565b7f5265656e7472616e637947756172643a207265656e7472616e742063616c6c005f82015250565b5f611f80601f83611f3c565b9150611f8b82611f4c565b602082019050919050565b5f6020820190508181035f830152611fad81611f74565b905091905056fea26469706673582212201e30d0d604fd022f89c23964a9d22bda38ecf54ffa6cae80499ffbd4b724546164736f6c63430008140033","linkReferences":{"src/libraries/OracleLib.sol":{"OracleLib":[{"start":5088,"length":20},{"start":5969,"length":20}]}}},"methodIdentifiers":{"burnStb(uint256)":"1004e3a5","calculateHealthFactor(uint256,uint256)":"01f72884","depositCollateral(address,uint256)":"a5d5db0c","depositCollateralAndMintStb(address,uint256,uint256)":"2b59cc10","getAccountCollateralValue(address)":"7d1a4450","getAccountInformation(address)":"7be564fc","getAdditionalFeedPrecision()":"8f63d667","getCollateralBalanceOfUser(address,address)":"31e92b83","getCollateralTokenPriceFeed(address)":"1c08adda","getCollateralTokens()":"b58eb63f","getHealthFactor()":"a5f352b7","getHealthFactor(address)":"fe6bcd7c","getLiquidationBonus()":"59aa9e72","getLiquidationPrecision()":"6c8102c0","getLiquidationThreshold()":"4ae9b8bc","getMinHealthFactor()":"8c1ae6c8","getPrecision()":"9670c0bc","getStb()":"4448cf81","getTokenAmountFromUsd(address,uint256)":"afea2e48","getUsdValue(address,uint256)":"c660d112","liquidate(address,address,uint256)":"26c01303","mintStb(uint256)":"c10cf675","redeemCollateral(address,uint256)":"9acd81b3","redeemCollateralForStb(address,uint256,uint256)":"a776567e"},"id":35}