{"abi":[{"type":"function","name":"staleCheckLatestRoundData","inputs":[{"name":"priceFeed","type":"AggregatorV3Interface","internalType":"contract AggregatorV3Interface"}],"outputs":[{"name":"","type":"uint80","internalType":"uint80"},{"name":"","type":"int256","internalType":"int256"},{"name":"","type":"uint256","internalType":"uint256"},{"name":"","type":"uint256","internalType":"uint256"},{"name":"","type":"uint80","internalType":"uint80"}],"stateMutability":"view"},{"type":"error","name":"OracleLib_StalePrice","inputs":[]}],"bytecode":{"object":"0x6080806040523461001a5761026e908161001f823930815050f35b5f80fdfe6080604081815260049182361015610015575f80fd5b5f90813560e01c632ba1c96a1461002a575f80fd5b60207ffffffffffffffffffffffffffffffffffffffffffffffffffffffffffffffffc36011261021957833573ffffffffffffffffffffffffffffffffffffffff81168091036102155781858160a0937ffeaf968c0000000000000000000000000000000000000000000000000000000082525afa90811561020b578280948180938195610148575b508342039042821161011c5750612a30106100f45760a0965080519569ffffffffffffffffffff809616875260208701528501526060840152166080820152f35b8690517f0a7763ff000000000000000000000000000000000000000000000000000000008152fd5b8060118a7f4e487b71000000000000000000000000000000000000000000000000000000006024945252fd5b955093509450505060a03d8111610204575b7fffffffffffffffffffffffffffffffffffffffffffffffffffffffffffffffe0601f820116830183811067ffffffffffffffff8211176101d85760a09184918652810103126101d5576101ad8261021d565b60208301519284810151946101c960806060840151930161021d565b9294959192935f6100b3565b80fd5b6024836041887f4e487b7100000000000000000000000000000000000000000000000000000000835252fd5b503d61015a565b83513d84823e3d90fd5b8280fd5b5080fd5b519069ffffffffffffffffffff8216820361023457565b5f80fdfea2646970667358221220cada51d1122551645637b99cc3ba2493f85d6fbd45b34f2c0110b41dd55aa3db64736f6c63430008140033","linkReferences":{}},"methodIdentifiers":{"staleCheckLatestRoundData(AggregatorV3Interface)":"2ba1c96a"},"id":37}